{
  "address": "0xcC70fcEe15eC3FA4B084E4CC787a05bdBD3F7A4a",
  "abi": [
    {
      "inputs": [],
      "stateMutability": "nonpayable",
      "type": "constructor"
    },
    {
      "anonymous": false,
      "inputs": [
        {
          "indexed": false,
          "internalType": "uint32",
          "name": "timestamp",
          "type": "uint32"
        },
        {
          "indexed": false,
          "internalType": "bool",
          "name": "isFloanLoan",
          "type": "bool"
        }
      ],
      "name": "Executed",
      "type": "event"
    },
    {
      "anonymous": false,
      "inputs": [
        {
          "indexed": true,
          "internalType": "address",
          "name": "previousOwner",
          "type": "address"
        },
        {
          "indexed": true,
          "internalType": "address",
          "name": "newOwner",
          "type": "address"
        }
      ],
      "name": "OwnershipTransferred",
      "type": "event"
    },
    {
      "anonymous": false,
      "inputs": [
        {
          "indexed": true,
          "internalType": "bytes32",
          "name": "id",
          "type": "bytes32"
        },
        {
          "indexed": false,
          "internalType": "bytes32[]",
          "name": "commands",
          "type": "bytes32[]"
        },
        {
          "indexed": false,
          "internalType": "bytes[]",
          "name": "state",
          "type": "bytes[]"
        }
      ],
      "name": "TaskSet",
      "type": "event"
    },
    {
      "anonymous": false,
      "inputs": [
        {
          "indexed": true,
          "internalType": "bytes32",
          "name": "id",
          "type": "bytes32"
        }
      ],
      "name": "TaskUnset",
      "type": "event"
    },
    {
      "inputs": [
        {
          "internalType": "bytes32",
          "name": "_id",
          "type": "bytes32"
        }
      ],
      "name": "isSet",
      "outputs": [
        {
          "internalType": "bool",
          "name": "",
          "type": "bool"
        }
      ],
      "stateMutability": "view",
      "type": "function"
    },
    {
      "inputs": [],
      "name": "owner",
      "outputs": [
        {
          "internalType": "address",
          "name": "",
          "type": "address"
        }
      ],
      "stateMutability": "view",
      "type": "function"
    },
    {
      "inputs": [],
      "name": "renounceOwnership",
      "outputs": [],
      "stateMutability": "nonpayable",
      "type": "function"
    },
    {
      "inputs": [
        {
          "internalType": "bytes32[]",
          "name": "commands",
          "type": "bytes32[]"
        },
        {
          "internalType": "bytes[]",
          "name": "state",
          "type": "bytes[]"
        }
      ],
      "name": "set",
      "outputs": [],
      "stateMutability": "nonpayable",
      "type": "function"
    },
    {
      "inputs": [
        {
          "internalType": "address",
          "name": "newOwner",
          "type": "address"
        }
      ],
      "name": "transferOwnership",
      "outputs": [],
      "stateMutability": "nonpayable",
      "type": "function"
    },
    {
      "inputs": [
        {
          "internalType": "bytes32[]",
          "name": "commands",
          "type": "bytes32[]"
        },
        {
          "internalType": "bytes[]",
          "name": "state",
          "type": "bytes[]"
        }
      ],
      "name": "unset",
      "outputs": [],
      "stateMutability": "nonpayable",
      "type": "function"
    }
  ],
  "transactionHash": "0x9d6c2d11af656da262fd94420108d2937ab2dddd2e335cb0c6f04f8bca4e1135",
  "args": [],
  "solcInputHash": "e82da98fc643eb2d801cdf4763a64269",
  "bytecode": "0x608060405234801561001057600080fd5b5061001a3361001f565b61006f565b600080546001600160a01b038381166001600160a01b0319831681178455604051919092169283917f8be0079c531659141344cd1fd0a4f28419497f9722a3daafe3b4186f6b6457e09190a35050565b6108408061007e6000396000f3fe608060405234801561001057600080fd5b50600436106100725760003560e01c80638d1e46a4116100505780638d1e46a4146100a75780638da5cb5b146100df578063f2fde38b1461010757600080fd5b806322e138d614610077578063715018a61461008c578063793cc74914610094575b600080fd5b61008a61008536600461050d565b61011a565b005b61008a6101f9565b61008a6100a236600461050d565b61026c565b6100ca6100b5366004610683565b60009081526001602052604090205460ff1690565b60405190151581526020015b60405180910390f35b60005460405173ffffffffffffffffffffffffffffffffffffffff90911681526020016100d6565b61008a6101153660046104d0565b61035f565b60005473ffffffffffffffffffffffffffffffffffffffff1633146101865760405162461bcd60e51b815260206004820181905260248201527f4f776e61626c653a2063616c6c6572206973206e6f7420746865206f776e657260448201526064015b60405180910390fd5b600083838360405160200161019d9392919061069c565b60408051601f19818403018152828252805160209182012060008181526001909252918120805460ff1916905590925082917fae3283f981866c17de6b7b7e8b2890d44620bc8e272c13fa9c6fd79305ae04349190a250505050565b60005473ffffffffffffffffffffffffffffffffffffffff1633146102605760405162461bcd60e51b815260206004820181905260248201527f4f776e61626c653a2063616c6c6572206973206e6f7420746865206f776e6572604482015260640161017d565b61026a600061045b565b565b60005473ffffffffffffffffffffffffffffffffffffffff1633146102d35760405162461bcd60e51b815260206004820181905260248201527f4f776e61626c653a2063616c6c6572206973206e6f7420746865206f776e6572604482015260640161017d565b60008383836040516020016102ea9392919061069c565b60408051601f198184030181528282528051602091820120600081815260019283905292909220805460ff19169091179055915081907f72c24451fb9c98619023629fcf1acdfd99a2d62277c3fedd205bf4102435b783906103519087908790879061069c565b60405180910390a250505050565b60005473ffffffffffffffffffffffffffffffffffffffff1633146103c65760405162461bcd60e51b815260206004820181905260248201527f4f776e61626c653a2063616c6c6572206973206e6f7420746865206f776e6572604482015260640161017d565b73ffffffffffffffffffffffffffffffffffffffff811661044f5760405162461bcd60e51b815260206004820152602660248201527f4f776e61626c653a206e6577206f776e657220697320746865207a65726f206160448201527f6464726573730000000000000000000000000000000000000000000000000000606482015260840161017d565b6104588161045b565b50565b6000805473ffffffffffffffffffffffffffffffffffffffff8381167fffffffffffffffffffffffff0000000000000000000000000000000000000000831681178455604051919092169283917f8be0079c531659141344cd1fd0a4f28419497f9722a3daafe3b4186f6b6457e09190a35050565b6000602082840312156104e257600080fd5b813573ffffffffffffffffffffffffffffffffffffffff8116811461050657600080fd5b9392505050565b60008060006040848603121561052257600080fd5b833567ffffffffffffffff8082111561053a57600080fd5b818601915086601f83011261054e57600080fd5b81358181111561055d57600080fd5b602088818360051b860101111561057357600080fd5b80840196508195508088013593508284111561058e57600080fd5b838801935088601f8501126105a257600080fd5b83359150828211156105b6576105b66107db565b8160051b6105c58282016107aa565b8381528281019086840183880185018d10156105e057600080fd5b600093505b85841015610671578035878111156105fc57600080fd5b8801603f81018e1361060d57600080fd5b8581013588811115610621576106216107db565b61063387601f19601f840116016107aa565b8181528f604083850101111561064857600080fd5b8160408401898301376000918101880191909152845250600193909301929184019184016105e5565b50809750505050505050509250925092565b60006020828403121561069557600080fd5b5035919050565b6040815282604082015260007f07ffffffffffffffffffffffffffffffffffffffffffffffffffffffffffffff8411156106d557600080fd5b8360051b80866060850137808301905060608101600080825260206060868503018187015282875180855260808601915060808160051b8701019450828901845b82811015610799577fffffffffffffffffffffffffffffffffffffffffffffffffffffffffffffff8088880301845281518051808952875b81811015610769578281018801518a8201890152870161074e565b81811115610779578888838c0101525b50601f01601f191697909701850196509284019290840190600101610716565b50949b9a5050505050505050505050565b604051601f8201601f1916810167ffffffffffffffff811182821017156107d3576107d36107db565b604052919050565b7f4e487b7100000000000000000000000000000000000000000000000000000000600052604160045260246000fdfea2646970667358221220530c830e15fbe021837cb6df681fa3bc7bdf4a08e63ae9eb4c35a5a64581e25364736f6c63430008060033",
  "devdoc": {
    "author": "Kames Geraghty",
    "kind": "dev",
    "methods": {
      "owner()": {
        "details": "Returns the address of the current owner."
      },
      "renounceOwnership()": {
        "details": "Leaves the contract without owner. It will not be possible to call `onlyOwner` functions anymore. Can only be called by the current owner. NOTE: Renouncing ownership will leave the contract without an owner, thereby removing any functionality that is only available to the owner."
      },
      "transferOwnership(address)": {
        "details": "Transfers ownership of the contract to a new account (`newOwner`). Can only be called by the current owner."
      }
    },
    "title": "AutoWallet Smart Contract",
    "version": 1
  },
  "userdoc": {
    "kind": "user",
    "methods": {
      "constructor": {
        "notice": "Set initial smart contract parameters during deploy."
      },
      "isSet(bytes32)": {
        "notice": "Get"
      },
      "set(bytes32[],bytes[])": {
        "notice": "Set"
      },
      "unset(bytes32[],bytes[])": {
        "notice": "Unset"
      }
    },
    "notice": "The AutoWallet contract executes dynamic transactions using a EVM contract.",
    "version": 1
  },
  "storageLayout": {
    "storage": [
      {
        "astId": 7,
        "contract": "contracts/core/AutoTaskList.sol:AutoTaskList",
        "label": "_owner",
        "offset": 0,
        "slot": "0",
        "type": "t_address"
      },
      {
        "astId": 1953,
        "contract": "contracts/core/AutoTaskList.sol:AutoTaskList",
        "label": "tasks",
        "offset": 0,
        "slot": "1",
        "type": "t_mapping(t_bytes32,t_bool)"
      }
    ],
    "types": {
      "t_address": {
        "encoding": "inplace",
        "label": "address",
        "numberOfBytes": "20"
      },
      "t_bool": {
        "encoding": "inplace",
        "label": "bool",
        "numberOfBytes": "1"
      },
      "t_bytes32": {
        "encoding": "inplace",
        "label": "bytes32",
        "numberOfBytes": "32"
      },
      "t_mapping(t_bytes32,t_bool)": {
        "encoding": "mapping",
        "key": "t_bytes32",
        "label": "mapping(bytes32 => bool)",
        "numberOfBytes": "32",
        "value": "t_bool"
      }
    }
  }
}