{
  "address": "0xcbCb820ac2d799c928cAeF975Bc5Cda8956d151F",
  "abi": [
    {
      "inputs": [
        {
          "internalType": "contract IAutoTaskList",
          "name": "_tasks",
          "type": "address"
        },
        {
          "internalType": "contract VirtualMachine",
          "name": "_virtualmachine",
          "type": "address"
        }
      ],
      "stateMutability": "nonpayable",
      "type": "constructor"
    },
    {
      "anonymous": false,
      "inputs": [
        {
          "indexed": false,
          "internalType": "uint32",
          "name": "timestamp",
          "type": "uint32"
        },
        {
          "indexed": false,
          "internalType": "bool",
          "name": "isFlashLoan",
          "type": "bool"
        }
      ],
      "name": "Executed",
      "type": "event"
    },
    {
      "anonymous": false,
      "inputs": [
        {
          "indexed": true,
          "internalType": "address",
          "name": "previousOwner",
          "type": "address"
        },
        {
          "indexed": true,
          "internalType": "address",
          "name": "newOwner",
          "type": "address"
        }
      ],
      "name": "OwnershipTransferred",
      "type": "event"
    },
    {
      "anonymous": false,
      "inputs": [
        {
          "indexed": true,
          "internalType": "contract IAutoTaskList",
          "name": "tasks",
          "type": "address"
        }
      ],
      "name": "TasksSet",
      "type": "event"
    },
    {
      "anonymous": false,
      "inputs": [
        {
          "indexed": true,
          "internalType": "contract VirtualMachine",
          "name": "virtualmachine",
          "type": "address"
        }
      ],
      "name": "VirtualMachineSet",
      "type": "event"
    },
    {
      "stateMutability": "payable",
      "type": "fallback"
    },
    {
      "inputs": [
        {
          "internalType": "bytes32[]",
          "name": "commands",
          "type": "bytes32[]"
        },
        {
          "internalType": "bytes[]",
          "name": "state",
          "type": "bytes[]"
        }
      ],
      "name": "execute",
      "outputs": [
        {
          "internalType": "bytes[]",
          "name": "",
          "type": "bytes[]"
        }
      ],
      "stateMutability": "nonpayable",
      "type": "function"
    },
    {
      "inputs": [],
      "name": "getTasks",
      "outputs": [
        {
          "internalType": "contract IAutoTaskList",
          "name": "",
          "type": "address"
        }
      ],
      "stateMutability": "view",
      "type": "function"
    },
    {
      "inputs": [],
      "name": "getVirtualMachine",
      "outputs": [
        {
          "internalType": "contract VirtualMachine",
          "name": "",
          "type": "address"
        }
      ],
      "stateMutability": "view",
      "type": "function"
    },
    {
      "inputs": [],
      "name": "owner",
      "outputs": [
        {
          "internalType": "address",
          "name": "",
          "type": "address"
        }
      ],
      "stateMutability": "view",
      "type": "function"
    },
    {
      "inputs": [],
      "name": "renounceOwnership",
      "outputs": [],
      "stateMutability": "nonpayable",
      "type": "function"
    },
    {
      "inputs": [
        {
          "internalType": "contract IAutoTaskList",
          "name": "_tasks",
          "type": "address"
        }
      ],
      "name": "setTasks",
      "outputs": [],
      "stateMutability": "nonpayable",
      "type": "function"
    },
    {
      "inputs": [
        {
          "internalType": "contract VirtualMachine",
          "name": "_virtualmachine",
          "type": "address"
        }
      ],
      "name": "setVirtualMachine",
      "outputs": [],
      "stateMutability": "nonpayable",
      "type": "function"
    },
    {
      "inputs": [
        {
          "internalType": "bytes32[]",
          "name": "commands",
          "type": "bytes32[]"
        },
        {
          "internalType": "bytes[]",
          "name": "state",
          "type": "bytes[]"
        }
      ],
      "name": "task",
      "outputs": [
        {
          "internalType": "bytes[]",
          "name": "",
          "type": "bytes[]"
        }
      ],
      "stateMutability": "nonpayable",
      "type": "function"
    },
    {
      "inputs": [],
      "name": "tasks",
      "outputs": [
        {
          "internalType": "contract IAutoTaskList",
          "name": "",
          "type": "address"
        }
      ],
      "stateMutability": "view",
      "type": "function"
    },
    {
      "inputs": [
        {
          "internalType": "address",
          "name": "newOwner",
          "type": "address"
        }
      ],
      "name": "transferOwnership",
      "outputs": [],
      "stateMutability": "nonpayable",
      "type": "function"
    },
    {
      "inputs": [],
      "name": "virtualmachine",
      "outputs": [
        {
          "internalType": "contract VirtualMachine",
          "name": "",
          "type": "address"
        }
      ],
      "stateMutability": "view",
      "type": "function"
    },
    {
      "inputs": [
        {
          "internalType": "address payable",
          "name": "to",
          "type": "address"
        },
        {
          "internalType": "uint256",
          "name": "amount",
          "type": "uint256"
        }
      ],
      "name": "withdraw",
      "outputs": [],
      "stateMutability": "nonpayable",
      "type": "function"
    },
    {
      "stateMutability": "payable",
      "type": "receive"
    }
  ],
  "transactionHash": "0x126b45ad46fa0cf12959051249d96a574a5f8b7907156aec9c190f07811cfc33",
  "args": [
    "0xa87987985aF471b6e79AD463E8FB8858704b02bD",
    "0xcC70fcEe15eC3FA4B084E4CC787a05bdBD3F7A4a"
  ],
  "solcInputHash": "e82da98fc643eb2d801cdf4763a64269",
  "bytecode": "0x608060405234801561001057600080fd5b5060405161119338038061119383398101604081905261002f916100bc565b6100383361006c565b600180546001600160a01b039283166001600160a01b0319918216179091556002805493909216921691909117905561010e565b600080546001600160a01b038381166001600160a01b0319831681178455604051919092169283917f8be0079c531659141344cd1fd0a4f28419497f9722a3daafe3b4186f6b6457e09190a35050565b600080604083850312156100cf57600080fd5b82516100da816100f6565b60208401519092506100eb816100f6565b809150509250929050565b6001600160a01b038116811461010b57600080fd5b50565b6110768061011d6000396000f3fe6080604052600436106100bf5760003560e01c8063c305a6d91161006e578063e65da09a1161004b578063e65da09a146101fd578063f2fde38b1461021d578063f3fef3a31461023d57005b8063c305a6d91461019d578063ca5a518a146101bd578063de792d5f146101dd57005b80638d13792d1161009c5780638d13792d146101325780638da5cb5b1461015f578063abfcc6d71461017d57005b806304a87e38146100c857806357e45ddc146100ff578063715018a61461011d57005b366100c657005b005b3480156100d457600080fd5b506002546001600160a01b03165b6040516001600160a01b0390911681526020015b60405180910390f35b34801561010b57600080fd5b506001546001600160a01b03166100e2565b34801561012957600080fd5b506100c661025d565b34801561013e57600080fd5b5061015261014d366004610b8c565b6102c8565b6040516100f69190610f3c565b34801561016b57600080fd5b506000546001600160a01b03166100e2565b34801561018957600080fd5b506100c6610198366004610b3c565b610414565b3480156101a957600080fd5b506002546100e2906001600160a01b031681565b3480156101c957600080fd5b506001546100e2906001600160a01b031681565b3480156101e957600080fd5b506101526101f8366004610b8c565b61047b565b34801561020957600080fd5b506100c6610218366004610b3c565b61067d565b34801561022957600080fd5b506100c6610238366004610b3c565b6106e0565b34801561024957600080fd5b506100c6610258366004610b60565b6107c2565b6000546001600160a01b031633146102bc5760405162461bcd60e51b815260206004820181905260248201527f4f776e61626c653a2063616c6c6572206973206e6f7420746865206f776e657260448201526064015b60405180910390fd5b6102c66000610826565b565b6002546040516060916000916001600160a01b0390911690638d1e46a4906102f890889088908890602001610e7e565b604051602081830303815290604052805190602001206040518263ffffffff1660e01b815260040161032c91815260200190565b602060405180830381600087803b15801561034657600080fd5b505af115801561035a573d6000803e3d6000fd5b505050506040513d601f19601f8201168201806040525081019061037e9190610dd0565b9050806103cd5760405162461bcd60e51b815260206004820152601360248201527f57616c6c65742f756e617574686f72697a65640000000000000000000000000060448201526064016102b3565b61040b858580806020026020016040519081016040528093929190818152602001838360200280828437600092019190915250879250610883915050565b95945050505050565b6000546001600160a01b0316331461046e5760405162461bcd60e51b815260206004820181905260248201527f4f776e61626c653a2063616c6c6572206973206e6f7420746865206f776e657260448201526064016102b3565b610477816109de565b5050565b6000546060906001600160a01b031633146104d85760405162461bcd60e51b815260206004820181905260248201527f4f776e61626c653a2063616c6c6572206973206e6f7420746865206f776e657260448201526064016102b3565b60015460405160009182916001600160a01b03909116907fde792d5f000000000000000000000000000000000000000000000000000000009061052390899089908990602401610e7e565b60408051601f198184030181529181526020820180517bffffffffffffffffffffffffffffffffffffffffffffffffffffffff167fffffffff0000000000000000000000000000000000000000000000000000000090941693909317909252905161058e9190610e62565b600060405180830381855af49150503d80600081146105c9576040519150601f19603f3d011682016040523d82523d6000602084013e6105ce565b606091505b5091509150816106205760405162461bcd60e51b815260206004820152601760248201527f57616c6c65742f657865637574696f6e2d6661696c656400000000000000000060448201526064016102b3565b6040805163ffffffff42168152600060208201527f870e9a8a9bb11def7edec6c724db6afdd1deb3aa613a1b813ded61ba328a92ab910160405180910390a1808060200190518101906106739190610cdf565b9695505050505050565b6000546001600160a01b031633146106d75760405162461bcd60e51b815260206004820181905260248201527f4f776e61626c653a2063616c6c6572206973206e6f7420746865206f776e657260448201526064016102b3565b61047781610a39565b6000546001600160a01b0316331461073a5760405162461bcd60e51b815260206004820181905260248201527f4f776e61626c653a2063616c6c6572206973206e6f7420746865206f776e657260448201526064016102b3565b6001600160a01b0381166107b65760405162461bcd60e51b815260206004820152602660248201527f4f776e61626c653a206e6577206f776e657220697320746865207a65726f206160448201527f646472657373000000000000000000000000000000000000000000000000000060648201526084016102b3565b6107bf81610826565b50565b6000546001600160a01b0316331461081c5760405162461bcd60e51b815260206004820181905260248201527f4f776e61626c653a2063616c6c6572206973206e6f7420746865206f776e657260448201526064016102b3565b6104778282610a94565b600080546001600160a01b0383811673ffffffffffffffffffffffffffffffffffffffff19831681178455604051919092169283917f8be0079c531659141344cd1fd0a4f28419497f9722a3daafe3b4186f6b6457e09190a35050565b60015460405160609160009182916001600160a01b0316907fde792d5f00000000000000000000000000000000000000000000000000000000906108cd9088908890602401610eef565b60408051601f198184030181529181526020820180517bffffffffffffffffffffffffffffffffffffffffffffffffffffffff167fffffffff000000000000000000000000000000000000000000000000000000009094169390931790925290516109389190610e62565b600060405180830381855af49150503d8060008114610973576040519150601f19603f3d011682016040523d82523d6000602084013e610978565b606091505b5091509150816109ca5760405162461bcd60e51b815260206004820152601760248201527f57616c6c65742f657865637574696f6e2d6661696c656400000000000000000060448201526064016102b3565b8080602001905181019061040b9190610cdf565b6002805473ffffffffffffffffffffffffffffffffffffffff19166001600160a01b038316908117909155604051600091907f464df9231b591ad3516db1107972c2a1c98ffd802ca563b6af236ee01e73a212908390a25090565b6001805473ffffffffffffffffffffffffffffffffffffffff19166001600160a01b038316908117909155604051600091907fd97e12a61d28f6e93e874dcf9ac71974d0331308d2308a67fa56be24249ee389908390a25090565b6000826001600160a01b03168260405160006040518083038185875af1925050503d8060008114610ae1576040519150601f19603f3d011682016040523d82523d6000602084013e610ae6565b606091505b5050905080610b375760405162461bcd60e51b815260206004820152601a60248201527f57616c6c65742f6574682d7472616e736665722d6661696c656400000000000060448201526064016102b3565b505050565b600060208284031215610b4e57600080fd5b8135610b598161102b565b9392505050565b60008060408385031215610b7357600080fd5b8235610b7e8161102b565b946020939093013593505050565b600080600060408486031215610ba157600080fd5b833567ffffffffffffffff80821115610bb957600080fd5b818601915086601f830112610bcd57600080fd5b813581811115610bdc57600080fd5b602088818360051b8601011115610bf257600080fd5b808401965081955080880135935082841115610c0d57600080fd5b838801935088601f850112610c2157600080fd5b83359150610c36610c3183610f80565b610f4f565b8083825282820191508286018b848660051b8901011115610c5657600080fd5b60005b85811015610ccd57813587811115610c7057600080fd5b8801603f81018e13610c8157600080fd5b85810135610c91610c3182610fa4565b8181528f6040838501011115610ca657600080fd5b81604084018983013760009181018801919091528552509284019290840190600101610c59565b50508096505050505050509250925092565b60006020808385031215610cf257600080fd5b825167ffffffffffffffff80821115610d0a57600080fd5b818501915085601f830112610d1e57600080fd5b8151610d2c610c3182610f80565b80828252858201915085850189878560051b8801011115610d4c57600080fd5b60005b84811015610dc157815186811115610d6657600080fd5b8701603f81018c13610d7757600080fd5b888101516040610d89610c3183610fa4565b8281528e82848601011115610d9d57600080fd5b610dac838d8301848701610fcc565b87525050509287019290870190600101610d4f565b50909998505050505050505050565b600060208284031215610de257600080fd5b81518015158114610b5957600080fd5b600082825180855260208086019550808260051b84010181860160005b84811015610e5557601f1980878503018a5282518051808652610e3781888801898501610fcc565b9a86019a601f01909116939093018401925090830190600101610e0f565b5090979650505050505050565b60008251610e74818460208701610fcc565b9190910192915050565b6040815282604082015260007f07ffffffffffffffffffffffffffffffffffffffffffffffffffffffffffffff841115610eb757600080fd5b8360051b80866060850137808301905060608101600081526060848303016020850152610ee48186610df2565b979650505050505050565b604080825283519082018190526000906020906060840190828701845b82811015610f2857815184529284019290840190600101610f0c565b505050838103828501526106738186610df2565b602081526000610b596020830184610df2565b604051601f8201601f1916810167ffffffffffffffff81118282101715610f7857610f78610ffc565b604052919050565b600067ffffffffffffffff821115610f9a57610f9a610ffc565b5060051b60200190565b600067ffffffffffffffff821115610fbe57610fbe610ffc565b50601f01601f191660200190565b60005b83811015610fe7578181015183820152602001610fcf565b83811115610ff6576000848401525b50505050565b7f4e487b7100000000000000000000000000000000000000000000000000000000600052604160045260246000fd5b6001600160a01b03811681146107bf57600080fdfea26469706673582212209482a3412c4bf7c7f8d3f9b44dc7516cf159252f9fc0a3f66927b10c0abe975064736f6c63430008060033",
  "devdoc": {
    "author": "Kames Geraghty",
    "kind": "dev",
    "methods": {
      "constructor": {
        "details": "Token is immutable. Once set it CAN NOT be updated.",
        "params": {
          "_tasks": "Approved Tasks",
          "_virtualmachine": "EVM contract"
        }
      },
      "owner()": {
        "details": "Returns the address of the current owner."
      },
      "renounceOwnership()": {
        "details": "Leaves the contract without owner. It will not be possible to call `onlyOwner` functions anymore. Can only be called by the current owner. NOTE: Renouncing ownership will leave the contract without an owner, thereby removing any functionality that is only available to the owner."
      },
      "transferOwnership(address)": {
        "details": "Transfers ownership of the contract to a new account (`newOwner`). Can only be called by the current owner."
      }
    },
    "title": "AutoWallet Smart Contract",
    "version": 1
  },
  "userdoc": {
    "kind": "user",
    "methods": {
      "constructor": {
        "notice": "Set initial smart contract parameters during deploy."
      },
      "execute(bytes32[],bytes[])": {
        "notice": "Execute ordered transaction."
      },
      "getTasks()": {
        "notice": "Get approved tasks list."
      },
      "getVirtualMachine()": {
        "notice": "Get virtualmachine library."
      },
      "setTasks(address)": {
        "notice": "Set approved tasks list."
      },
      "setVirtualMachine(address)": {
        "notice": "Set virtualmachine library."
      },
      "task(bytes32[],bytes[])": {
        "notice": "Execute approved transaction tasks."
      },
      "tasks()": {
        "notice": "Approved task list of executable transaction bundles."
      },
      "virtualmachine()": {
        "notice": "EVM to execute order transactions"
      },
      "withdraw(address,uint256)": {
        "notice": "Withdraw ETH from contract as owner."
      }
    },
    "notice": "The AutoWallet contract executes dynamic transactions using a EVM contract.",
    "version": 1
  },
  "storageLayout": {
    "storage": [
      {
        "astId": 7,
        "contract": "contracts/AutoWallet.sol:AutoWallet",
        "label": "_owner",
        "offset": 0,
        "slot": "0",
        "type": "t_address"
      },
      {
        "astId": 1631,
        "contract": "contracts/AutoWallet.sol:AutoWallet",
        "label": "virtualmachine",
        "offset": 0,
        "slot": "1",
        "type": "t_contract(VirtualMachine)2900"
      },
      {
        "astId": 1636,
        "contract": "contracts/AutoWallet.sol:AutoWallet",
        "label": "tasks",
        "offset": 0,
        "slot": "2",
        "type": "t_contract(IAutoTaskList)2947"
      }
    ],
    "types": {
      "t_address": {
        "encoding": "inplace",
        "label": "address",
        "numberOfBytes": "20"
      },
      "t_contract(IAutoTaskList)2947": {
        "encoding": "inplace",
        "label": "contract IAutoTaskList",
        "numberOfBytes": "20"
      },
      "t_contract(VirtualMachine)2900": {
        "encoding": "inplace",
        "label": "contract VirtualMachine",
        "numberOfBytes": "20"
      }
    }
  }
}