{
  "address": "0xd1084A0BC1b3A9F39e11DdF8918df8547fA12e16",
  "abi": [
    {
      "inputs": [],
      "stateMutability": "nonpayable",
      "type": "constructor"
    },
    {
      "inputs": [],
      "name": "counter",
      "outputs": [
        {
          "internalType": "uint256",
          "name": "",
          "type": "uint256"
        }
      ],
      "stateMutability": "view",
      "type": "function"
    },
    {
      "inputs": [],
      "name": "nextCounter",
      "outputs": [
        {
          "internalType": "uint256",
          "name": "",
          "type": "uint256"
        }
      ],
      "stateMutability": "view",
      "type": "function"
    },
    {
      "inputs": [
        {
          "internalType": "uint256",
          "name": "_counter",
          "type": "uint256"
        }
      ],
      "name": "setCounter",
      "outputs": [],
      "stateMutability": "nonpayable",
      "type": "function"
    }
  ],
  "transactionHash": "0x19fe48ebc62278829df6989e902b4b041a982c342f535514e47fdfbf65799d28",
  "args": [],
  "solcInputHash": "9bac4f4efbe339f98f47246ffd15354c",
  "bytecode": "0x608060405234801561001057600080fd5b50600160005561010d806100256000396000f3fe6080604052348015600f57600080fd5b5060043610603c5760003560e01c806361bc221a1460415780638bb5d9c314605b578063f5f1f2d614606d575b600080fd5b604960005481565b60405190815260200160405180910390f35b606b60663660046081565b600055565b005b604960008054607c9060016099565b905090565b600060208284031215609257600080fd5b5035919050565b6000821982111560d2577f4e487b7100000000000000000000000000000000000000000000000000000000600052601160045260246000fd5b50019056fea264697066735822122047d61c0176e967af14372bf61378c1e443a9f2b688f3faf3df7a6c3f49cf750c64736f6c63430008060033",
  "devdoc": {
    "kind": "dev",
    "methods": {},
    "version": 1
  },
  "userdoc": {
    "kind": "user",
    "methods": {},
    "version": 1
  },
  "storageLayout": {
    "storage": [
      {
        "astId": 3,
        "contract": "contracts/test/BeanCounter.sol:BeanCounter",
        "label": "counter",
        "offset": 0,
        "slot": "0",
        "type": "t_uint256"
      }
    ],
    "types": {
      "t_uint256": {
        "encoding": "inplace",
        "label": "uint256",
        "numberOfBytes": "32"
      }
    }
  }
}