{
  "address": "0x6394A0151a7FA739Ca674CE5B4caA8E39bF4125C",
  "abi": [
    {
      "inputs": [
        {
          "internalType": "contract ILendingPoolAddressesProvider",
          "name": "provider",
          "type": "address"
        }
      ],
      "stateMutability": "nonpayable",
      "type": "constructor"
    },
    {
      "inputs": [],
      "name": "ADDRESSES_PROVIDER",
      "outputs": [
        {
          "internalType": "contract ILendingPoolAddressesProvider",
          "name": "",
          "type": "address"
        }
      ],
      "stateMutability": "view",
      "type": "function"
    },
    {
      "inputs": [],
      "name": "LENDING_POOL",
      "outputs": [
        {
          "internalType": "contract ILendingPool",
          "name": "",
          "type": "address"
        }
      ],
      "stateMutability": "view",
      "type": "function"
    },
    {
      "inputs": [],
      "name": "_ADDRESSES_PROVIDER",
      "outputs": [
        {
          "internalType": "contract ILendingPoolAddressesProvider",
          "name": "",
          "type": "address"
        }
      ],
      "stateMutability": "view",
      "type": "function"
    },
    {
      "inputs": [],
      "name": "_LENDING_POOL",
      "outputs": [
        {
          "internalType": "contract ILendingPool",
          "name": "",
          "type": "address"
        }
      ],
      "stateMutability": "view",
      "type": "function"
    },
    {
      "inputs": [],
      "name": "counter",
      "outputs": [
        {
          "internalType": "uint256",
          "name": "",
          "type": "uint256"
        }
      ],
      "stateMutability": "view",
      "type": "function"
    },
    {
      "inputs": [
        {
          "internalType": "address[]",
          "name": "assets",
          "type": "address[]"
        },
        {
          "internalType": "uint256[]",
          "name": "amounts",
          "type": "uint256[]"
        },
        {
          "internalType": "uint256[]",
          "name": "premiums",
          "type": "uint256[]"
        },
        {
          "internalType": "address",
          "name": "initiator",
          "type": "address"
        },
        {
          "internalType": "bytes",
          "name": "params",
          "type": "bytes"
        }
      ],
      "name": "executeOperation",
      "outputs": [
        {
          "internalType": "bool",
          "name": "",
          "type": "bool"
        }
      ],
      "stateMutability": "nonpayable",
      "type": "function"
    },
    {
      "inputs": [
        {
          "internalType": "address[]",
          "name": "_assets",
          "type": "address[]"
        },
        {
          "internalType": "uint256[]",
          "name": "_amounts",
          "type": "uint256[]"
        }
      ],
      "name": "loan",
      "outputs": [
        {
          "internalType": "uint256",
          "name": "",
          "type": "uint256"
        }
      ],
      "stateMutability": "payable",
      "type": "function"
    }
  ],
  "transactionHash": "0x58f894fc9a07ee7b04c4f9c42296f053c14974e97f3941ef7d4fad23fc0b2fb9",
  "args": [
    "0xB53C1a33016B2DC2fF3653530bfF1848a515c8c5"
  ],
  "solcInputHash": "e82da98fc643eb2d801cdf4763a64269",
  "bytecode": "0x60c060405234801561001057600080fd5b5060405161096c38038061096c83398101604081905261002f916100d6565b80806001600160a01b031660a0816001600160a01b031660601b81525050806001600160a01b0316630261bf8b6040518163ffffffff1660e01b815260040160206040518083038186803b15801561008657600080fd5b505afa15801561009a573d6000803e3d6000fd5b505050506040513d601f19601f820116820180604052508101906100be91906100d6565b60601b6001600160601b031916608052506101129050565b6000602082840312156100e857600080fd5b81516100f3816100fa565b9392505050565b6001600160a01b038116811461010f57600080fd5b50565b60805160601c60a05160601c61081c610150600039600081816084015260e0015260008181610182015281816101b80152610340015261081c6000f3fe6080604052600436106100705760003560e01c806361bc221a1161004e57806361bc221a14610123578063920f5c8414610139578063b4dcfc7714610173578063f74e9671146101a657600080fd5b80630542975c146100755780632b6ac0ec146100ce5780634e32716214610102575b600080fd5b34801561008157600080fd5b507f00000000000000000000000000000000000000000000000000000000000000005b60405173ffffffffffffffffffffffffffffffffffffffff90911681526020015b60405180910390f35b3480156100da57600080fd5b506100a47f000000000000000000000000000000000000000000000000000000000000000081565b610115610110366004610437565b6101da565b6040519081526020016100c5565b34801561012f57600080fd5b5061011560005481565b34801561014557600080fd5b506101636101543660046104a3565b60019998505050505050505050565b60405190151581526020016100c5565b34801561017f57600080fd5b507f00000000000000000000000000000000000000000000000000000000000000006100a4565b3480156101b257600080fd5b506100a47f000000000000000000000000000000000000000000000000000000000000000081565b600083821461026e576040517f08c379a0000000000000000000000000000000000000000000000000000000008152602060048201526024808201527f4d6f64756c6541617665466c6173682f696e76616c69642d6c6f616e2d72657160448201527f7565737400000000000000000000000000000000000000000000000000000000606482015260840160405180910390fd5b60008467ffffffffffffffff811115610289576102896107d0565b6040519080825280602002602001820160405280156102b2578160200160208202803683370190505b50905060005b858110156102f15760008282815181106102d4576102d46107ba565b6020908102919091010152806102e981610773565b9150506102b8565b5060408051602081018252600080825291517fab9c4b5d00000000000000000000000000000000000000000000000000000000815290919073ffffffffffffffffffffffffffffffffffffffff7f0000000000000000000000000000000000000000000000000000000000000000169063ab9c4b5d906103859033908c908c908c908c908b9086908c908c9060040161069c565b600060405180830381600087803b15801561039f57600080fd5b505af11580156103b3573d6000803e3d6000fd5b50505050505050949350505050565b803573ffffffffffffffffffffffffffffffffffffffff811681146103e657600080fd5b919050565b60008083601f8401126103fd57600080fd5b50813567ffffffffffffffff81111561041557600080fd5b6020830191508360208260051b850101111561043057600080fd5b9250929050565b6000806000806040858703121561044d57600080fd5b843567ffffffffffffffff8082111561046557600080fd5b610471888389016103eb565b9096509450602087013591508082111561048a57600080fd5b50610497878288016103eb565b95989497509550505050565b600080600080600080600080600060a08a8c0312156104c157600080fd5b893567ffffffffffffffff808211156104d957600080fd5b6104e58d838e016103eb565b909b50995060208c01359150808211156104fe57600080fd5b61050a8d838e016103eb565b909950975060408c013591508082111561052357600080fd5b61052f8d838e016103eb565b909750955085915061054360608d016103c2565b945060808c013591508082111561055957600080fd5b818c0191508c601f83011261056d57600080fd5b81358181111561057c57600080fd5b8d602082850101111561058e57600080fd5b6020830194508093505050509295985092959850929598565b81835260007f07ffffffffffffffffffffffffffffffffffffffffffffffffffffffffffffff8311156105d957600080fd5b8260051b8083602087013760009401602001938452509192915050565b600081518084526020808501945080840160005b838110156106265781518752958201959082019060010161060a565b509495945050505050565b6000815180845260005b818110156106575760208185018101518683018201520161063b565b81811115610669576000602083870101525b50601f017fffffffffffffffffffffffffffffffffffffffffffffffffffffffffffffffe0169290920160200192915050565b73ffffffffffffffffffffffffffffffffffffffff8a8116825260e060208084018290529083018a90526000918b916101008501845b8d8110156106f757836106e4866103c2565b16825293820193908201906001016106d2565b50858103604087015261070b818c8e6105a7565b9350505050828103606084015261072281886105f6565b73ffffffffffffffffffffffffffffffffffffffff87166080850152905082810360a08401526107528186610631565b91505061076560c083018461ffff169052565b9a9950505050505050505050565b60007fffffffffffffffffffffffffffffffffffffffffffffffffffffffffffffffff8214156107b357634e487b7160e01b600052601160045260246000fd5b5060010190565b634e487b7160e01b600052603260045260246000fd5b634e487b7160e01b600052604160045260246000fdfea26469706673582212209973fb707f6b8fb77f0fb0f885a0b5d5489980264895da68584c1be9f86be16064736f6c63430008060033",
  "devdoc": {
    "kind": "dev",
    "methods": {},
    "version": 1
  },
  "userdoc": {
    "kind": "user",
    "methods": {},
    "version": 1
  },
  "storageLayout": {
    "storage": [
      {
        "astId": 3611,
        "contract": "contracts/modules/ModuleAaveFlash.sol:ModuleAaveFlash",
        "label": "counter",
        "offset": 0,
        "slot": "0",
        "type": "t_uint256"
      }
    ],
    "types": {
      "t_uint256": {
        "encoding": "inplace",
        "label": "uint256",
        "numberOfBytes": "32"
      }
    }
  }
}